{
  "_format": "hh-sol-artifact-1",
  "contractName": "Receipt",
  "sourceName": "contracts/nft/Receipt.sol",
  "abi": [
    {
      "inputs": [
        {
          "internalType": "address payable",
          "name": "_prescription",
          "type": "address"
        }
      ],
      "stateMutability": "nonpayable",
      "type": "constructor"
    },
    {
      "anonymous": false,
      "inputs": [
        {
          "indexed": true,
          "internalType": "address",
          "name": "owner",
          "type": "address"
        },
        {
          "indexed": true,
          "internalType": "address",
          "name": "approved",
          "type": "address"
        },
        {
          "indexed": true,
          "internalType": "uint256",
          "name": "tokenId",
          "type": "uint256"
        }
      ],
      "name": "Approval",
      "type": "event"
    },
    {
      "anonymous": false,
      "inputs": [
        {
          "indexed": true,
          "internalType": "address",
          "name": "owner",
          "type": "address"
        },
        {
          "indexed": true,
          "internalType": "address",
          "name": "operator",
          "type": "address"
        },
        {
          "indexed": false,
          "internalType": "bool",
          "name": "approved",
          "type": "bool"
        }
      ],
      "name": "ApprovalForAll",
      "type": "event"
    },
    {
      "anonymous": false,
      "inputs": [
        {
          "indexed": true,
          "internalType": "address",
          "name": "from",
          "type": "address"
        },
        {
          "indexed": true,
          "internalType": "address",
          "name": "to",
          "type": "address"
        },
        {
          "indexed": true,
          "internalType": "uint256",
          "name": "tokenId",
          "type": "uint256"
        }
      ],
      "name": "Transfer",
      "type": "event"
    },
    {
      "inputs": [
        {
          "internalType": "address",
          "name": "to",
          "type": "address"
        },
        {
          "internalType": "uint256",
          "name": "tokenId",
          "type": "uint256"
        }
      ],
      "name": "approve",
      "outputs": [],
      "stateMutability": "nonpayable",
      "type": "function"
    },
    {
      "inputs": [
        {
          "internalType": "address",
          "name": "owner",
          "type": "address"
        }
      ],
      "name": "balanceOf",
      "outputs": [
        {
          "internalType": "uint256",
          "name": "",
          "type": "uint256"
        }
      ],
      "stateMutability": "view",
      "type": "function"
    },
    {
      "inputs": [
        {
          "internalType": "uint256",
          "name": "tokenId",
          "type": "uint256"
        },
        {
          "internalType": "string",
          "name": "tokenURI",
          "type": "string"
        }
      ],
      "name": "create",
      "outputs": [
        {
          "internalType": "uint256",
          "name": "",
          "type": "uint256"
        }
      ],
      "stateMutability": "nonpayable",
      "type": "function"
    },
    {
      "inputs": [
        {
          "internalType": "uint256",
          "name": "tokenId",
          "type": "uint256"
        }
      ],
      "name": "getApproved",
      "outputs": [
        {
          "internalType": "address",
          "name": "",
          "type": "address"
        }
      ],
      "stateMutability": "view",
      "type": "function"
    },
    {
      "inputs": [
        {
          "internalType": "address",
          "name": "owner",
          "type": "address"
        },
        {
          "internalType": "address",
          "name": "operator",
          "type": "address"
        }
      ],
      "name": "isApprovedForAll",
      "outputs": [
        {
          "internalType": "bool",
          "name": "",
          "type": "bool"
        }
      ],
      "stateMutability": "view",
      "type": "function"
    },
    {
      "inputs": [],
      "name": "name",
      "outputs": [
        {
          "internalType": "string",
          "name": "",
          "type": "string"
        }
      ],
      "stateMutability": "view",
      "type": "function"
    },
    {
      "inputs": [],
      "name": "owner",
      "outputs": [
        {
          "internalType": "address",
          "name": "",
          "type": "address"
        }
      ],
      "stateMutability": "view",
      "type": "function"
    },
    {
      "inputs": [
        {
          "internalType": "uint256",
          "name": "tokenId",
          "type": "uint256"
        }
      ],
      "name": "ownerOf",
      "outputs": [
        {
          "internalType": "address",
          "name": "",
          "type": "address"
        }
      ],
      "stateMutability": "view",
      "type": "function"
    },
    {
      "inputs": [],
      "name": "prescription",
      "outputs": [
        {
          "internalType": "contract Prescription",
          "name": "",
          "type": "address"
        }
      ],
      "stateMutability": "view",
      "type": "function"
    },
    {
      "inputs": [
        {
          "internalType": "address",
          "name": "from",
          "type": "address"
        },
        {
          "internalType": "address",
          "name": "to",
          "type": "address"
        },
        {
          "internalType": "uint256",
          "name": "tokenId",
          "type": "uint256"
        }
      ],
      "name": "safeTransferFrom",
      "outputs": [],
      "stateMutability": "nonpayable",
      "type": "function"
    },
    {
      "inputs": [
        {
          "internalType": "address",
          "name": "from",
          "type": "address"
        },
        {
          "internalType": "address",
          "name": "to",
          "type": "address"
        },
        {
          "internalType": "uint256",
          "name": "tokenId",
          "type": "uint256"
        },
        {
          "internalType": "bytes",
          "name": "_data",
          "type": "bytes"
        }
      ],
      "name": "safeTransferFrom",
      "outputs": [],
      "stateMutability": "nonpayable",
      "type": "function"
    },
    {
      "inputs": [
        {
          "internalType": "address",
          "name": "operator",
          "type": "address"
        },
        {
          "internalType": "bool",
          "name": "approved",
          "type": "bool"
        }
      ],
      "name": "setApprovalForAll",
      "outputs": [],
      "stateMutability": "nonpayable",
      "type": "function"
    },
    {
      "inputs": [
        {
          "internalType": "bytes4",
          "name": "interfaceId",
          "type": "bytes4"
        }
      ],
      "name": "supportsInterface",
      "outputs": [
        {
          "internalType": "bool",
          "name": "",
          "type": "bool"
        }
      ],
      "stateMutability": "view",
      "type": "function"
    },
    {
      "inputs": [],
      "name": "symbol",
      "outputs": [
        {
          "internalType": "string",
          "name": "",
          "type": "string"
        }
      ],
      "stateMutability": "view",
      "type": "function"
    },
    {
      "inputs": [
        {
          "internalType": "uint256",
          "name": "tokenId",
          "type": "uint256"
        }
      ],
      "name": "tokenURI",
      "outputs": [
        {
          "internalType": "string",
          "name": "",
          "type": "string"
        }
      ],
      "stateMutability": "view",
      "type": "function"
    },
    {
      "inputs": [
        {
          "internalType": "address",
          "name": "from",
          "type": "address"
        },
        {
          "internalType": "address",
          "name": "to",
          "type": "address"
        },
        {
          "internalType": "uint256",
          "name": "tokenId",
          "type": "uint256"
        }
      ],
      "name": "transferFrom",
      "outputs": [],
      "stateMutability": "nonpayable",
      "type": "function"
    }
  ],
  "bytecode": "0x60806040523480156200001157600080fd5b5060405162003023380380620030238339818101604052810190620000379190620001e6565b6040518060400160405280600781526020017f52656365697074000000000000000000000000000000000000000000000000008152506040518060400160405280600381526020017f52435000000000000000000000000000000000000000000000000000000000008152508160009080519060200190620000bb9291906200011f565b508060019080519060200190620000d49291906200011f565b50505080600960006101000a81548173ffffffffffffffffffffffffffffffffffffffff021916908373ffffffffffffffffffffffffffffffffffffffff16021790555050620002c5565b8280546200012d9062000246565b90600052602060002090601f0160209004810192826200015157600085556200019d565b82601f106200016c57805160ff19168380011785556200019d565b828001600101855582156200019d579182015b828111156200019c5782518255916020019190600101906200017f565b5b509050620001ac9190620001b0565b5090565b5b80821115620001cb576000816000905550600101620001b1565b5090565b600081519050620001e081620002ab565b92915050565b600060208284031215620001f957600080fd5b60006200020984828501620001cf565b91505092915050565b60006200021f8262000226565b9050919050565b600073ffffffffffffffffffffffffffffffffffffffff82169050919050565b600060028204905060018216806200025f57607f821691505b602082108114156200027657620002756200027c565b5b50919050565b7f4e487b7100000000000000000000000000000000000000000000000000000000600052602260045260246000fd5b620002b68162000212565b8114620002c257600080fd5b50565b612d4e80620002d56000396000f3fe608060405234801561001057600080fd5b50600436106101005760003560e01c806370a0823111610097578063af151ccc11610066578063af151ccc146102bf578063b88d4fde146102dd578063c87b56dd146102f9578063e985e9c51461032957610100565b806370a08231146102375780638da5cb5b1461026757806395d89b4114610285578063a22cb465146102a357610100565b8063095ea7b3116100d3578063095ea7b3146101b357806323b872dd146101cf57806342842e0e146101eb5780636352211e1461020757610100565b80630118fa491461010557806301ffc9a71461013557806306fdde0314610165578063081812fc14610183575b600080fd5b61011f600480360381019061011a9190611d9d565b610359565b60405161012c919061241a565b60405180910390f35b61014f600480360381019061014a9190611d22565b610422565b60405161015c91906121c2565b60405180910390f35b61016d610504565b60405161017a91906121f8565b60405180910390f35b61019d60048036038101906101989190611d74565b610596565b6040516101aa9190612124565b60405180910390f35b6101cd60048036038101906101c89190611ce6565b61061b565b005b6101e960048036038101906101e49190611be0565b610733565b005b61020560048036038101906102009190611be0565b610793565b005b610221600480360381019061021c9190611d74565b6107b3565b60405161022e9190612124565b60405180910390f35b610251600480360381019061024c9190611b7b565b610865565b60405161025e919061241a565b60405180910390f35b61026f61091d565b60405161027c9190612124565b60405180910390f35b61028d610943565b60405161029a91906121f8565b60405180910390f35b6102bd60048036038101906102b89190611caa565b6109d5565b005b6102c76109eb565b6040516102d491906121dd565b60405180910390f35b6102f760048036038101906102f29190611c2f565b610a11565b005b610313600480360381019061030e9190611d74565b610a73565b60405161032091906121f8565b60405180910390f35b610343600480360381019061033e9190611ba4565b610bc5565b60405161035091906121c2565b60405180910390f35b6000600960009054906101000a900473ffffffffffffffffffffffffffffffffffffffff1673ffffffffffffffffffffffffffffffffffffffff166323b872dd3330866040518463ffffffff1660e01b81526004016103ba9392919061213f565b600060405180830381600087803b1580156103d457600080fd5b505af11580156103e8573d6000803e3d6000fd5b505050506103f66007610c59565b60006104026007610c6f565b905061040e3382610c7d565b6104188184610e57565b8091505092915050565b60007f80ac58cd000000000000000000000000000000000000000000000000000000007bffffffffffffffffffffffffffffffffffffffffffffffffffffffff1916827bffffffffffffffffffffffffffffffffffffffffffffffffffffffff191614806104ed57507f5b5e139f000000000000000000000000000000000000000000000000000000007bffffffffffffffffffffffffffffffffffffffffffffffffffffffff1916827bffffffffffffffffffffffffffffffffffffffffffffffffffffffff1916145b806104fd57506104fc82610ecb565b5b9050919050565b60606000805461051390612694565b80601f016020809104026020016040519081016040528092919081815260200182805461053f90612694565b801561058c5780601f106105615761010080835404028352916020019161058c565b820191906000526020600020905b81548152906001019060200180831161056f57829003601f168201915b5050505050905090565b60006105a182610f35565b6105e0576040517f08c379a00000000000000000000000000000000000000000000000000000000081526004016105d79061239a565b60405180910390fd5b6004600083815260200190815260200160002060009054906101000a900473ffffffffffffffffffffffffffffffffffffffff169050919050565b6000610626826107b3565b90508073ffffffffffffffffffffffffffffffffffffffff168373ffffffffffffffffffffffffffffffffffffffff161415610697576040517f08c379a000000000000000000000000000000000000000000000000000000000815260040161068e906123da565b60405180910390fd5b8073ffffffffffffffffffffffffffffffffffffffff166106b6610fa1565b73ffffffffffffffffffffffffffffffffffffffff1614806106e557506106e4816106df610fa1565b610bc5565b5b610724576040517f08c379a000000000000000000000000000000000000000000000000000000000815260040161071b906122da565b60405180910390fd5b61072e8383610fa9565b505050565b61074461073e610fa1565b82611062565b610783576040517f08c379a000000000000000000000000000000000000000000000000000000000815260040161077a906123fa565b60405180910390fd5b61078e838383611140565b505050565b6107ae83838360405180602001604052806000815250610a11565b505050565b6000806002600084815260200190815260200160002060009054906101000a900473ffffffffffffffffffffffffffffffffffffffff169050600073ffffffffffffffffffffffffffffffffffffffff168173ffffffffffffffffffffffffffffffffffffffff16141561085c576040517f08c379a00000000000000000000000000000000000000000000000000000000081526004016108539061231a565b60405180910390fd5b80915050919050565b60008073ffffffffffffffffffffffffffffffffffffffff168273ffffffffffffffffffffffffffffffffffffffff1614156108d6576040517f08c379a00000000000000000000000000000000000000000000000000000000081526004016108cd906122fa565b60405180910390fd5b600360008373ffffffffffffffffffffffffffffffffffffffff1673ffffffffffffffffffffffffffffffffffffffff168152602001908152602001600020549050919050565b600860009054906101000a900473ffffffffffffffffffffffffffffffffffffffff1681565b60606001805461095290612694565b80601f016020809104026020016040519081016040528092919081815260200182805461097e90612694565b80156109cb5780601f106109a0576101008083540402835291602001916109cb565b820191906000526020600020905b8154815290600101906020018083116109ae57829003601f168201915b5050505050905090565b6109e76109e0610fa1565b83836113a7565b5050565b600960009054906101000a900473ffffffffffffffffffffffffffffffffffffffff1681565b610a22610a1c610fa1565b83611062565b610a61576040517f08c379a0000000000000000000000000000000000000000000000000000000008152600401610a58906123fa565b60405180910390fd5b610a6d84848484611514565b50505050565b6060610a7e82610f35565b610abd576040517f08c379a0000000000000000000000000000000000000000000000000000000008152600401610ab49061237a565b60405180910390fd5b6000600660008481526020019081526020016000208054610add90612694565b80601f0160208091040260200160405190810160405280929190818152602001828054610b0990612694565b8015610b565780601f10610b2b57610100808354040283529160200191610b56565b820191906000526020600020905b815481529060010190602001808311610b3957829003601f168201915b505050505090506000610b67611570565b9050600081511415610b7d578192505050610bc0565b600082511115610bb2578082604051602001610b9a929190612100565b60405160208183030381529060405292505050610bc0565b610bbb84611587565b925050505b919050565b6000600560008473ffffffffffffffffffffffffffffffffffffffff1673ffffffffffffffffffffffffffffffffffffffff16815260200190815260200160002060008373ffffffffffffffffffffffffffffffffffffffff1673ffffffffffffffffffffffffffffffffffffffff16815260200190815260200160002060009054906101000a900460ff16905092915050565b6001816000016000828254019250508190555050565b600081600001549050919050565b600073ffffffffffffffffffffffffffffffffffffffff168273ffffffffffffffffffffffffffffffffffffffff161415610ced576040517f08c379a0000000000000000000000000000000000000000000000000000000008152600401610ce49061235a565b60405180910390fd5b610cf681610f35565b15610d36576040517f08c379a0000000000000000000000000000000000000000000000000000000008152600401610d2d9061225a565b60405180910390fd5b610d426000838361162e565b6001600360008473ffffffffffffffffffffffffffffffffffffffff1673ffffffffffffffffffffffffffffffffffffffff1681526020019081526020016000206000828254610d9291906124ff565b92505081905550816002600083815260200190815260200160002060006101000a81548173ffffffffffffffffffffffffffffffffffffffff021916908373ffffffffffffffffffffffffffffffffffffffff160217905550808273ffffffffffffffffffffffffffffffffffffffff16600073ffffffffffffffffffffffffffffffffffffffff167fddf252ad1be2c89b69c2b068fc378daa952ba7f163c4a11628f55a4df523b3ef60405160405180910390a4610e5360008383611633565b5050565b610e6082610f35565b610e9f576040517f08c379a0000000000000000000000000000000000000000000000000000000008152600401610e969061233a565b60405180910390fd5b80600660008481526020019081526020016000209080519060200190610ec692919061199f565b505050565b60007f01ffc9a7000000000000000000000000000000000000000000000000000000007bffffffffffffffffffffffffffffffffffffffffffffffffffffffff1916827bffffffffffffffffffffffffffffffffffffffffffffffffffffffff1916149050919050565b60008073ffffffffffffffffffffffffffffffffffffffff166002600084815260200190815260200160002060009054906101000a900473ffffffffffffffffffffffffffffffffffffffff1673ffffffffffffffffffffffffffffffffffffffff1614159050919050565b600033905090565b816004600083815260200190815260200160002060006101000a81548173ffffffffffffffffffffffffffffffffffffffff021916908373ffffffffffffffffffffffffffffffffffffffff160217905550808273ffffffffffffffffffffffffffffffffffffffff1661101c836107b3565b73ffffffffffffffffffffffffffffffffffffffff167f8c5be1e5ebec7d5bd14f71427d1e84f3dd0314c0f7b2291e5b200ac8c7c3b92560405160405180910390a45050565b600061106d82610f35565b6110ac576040517f08c379a00000000000000000000000000000000000000000000000000000000081526004016110a3906122ba565b60405180910390fd5b60006110b7836107b3565b90508073ffffffffffffffffffffffffffffffffffffffff168473ffffffffffffffffffffffffffffffffffffffff1614806110f957506110f88185610bc5565b5b8061113757508373ffffffffffffffffffffffffffffffffffffffff1661111f84610596565b73ffffffffffffffffffffffffffffffffffffffff16145b91505092915050565b8273ffffffffffffffffffffffffffffffffffffffff16611160826107b3565b73ffffffffffffffffffffffffffffffffffffffff16146111b6576040517f08c379a00000000000000000000000000000000000000000000000000000000081526004016111ad9061223a565b60405180910390fd5b600073ffffffffffffffffffffffffffffffffffffffff168273ffffffffffffffffffffffffffffffffffffffff161415611226576040517f08c379a000000000000000000000000000000000000000000000000000000000815260040161121d9061227a565b60405180910390fd5b61123183838361162e565b61123c600082610fa9565b6001600360008573ffffffffffffffffffffffffffffffffffffffff1673ffffffffffffffffffffffffffffffffffffffff168152602001908152602001600020600082825461128c9190612586565b925050819055506001600360008473ffffffffffffffffffffffffffffffffffffffff1673ffffffffffffffffffffffffffffffffffffffff16815260200190815260200160002060008282546112e391906124ff565b92505081905550816002600083815260200190815260200160002060006101000a81548173ffffffffffffffffffffffffffffffffffffffff021916908373ffffffffffffffffffffffffffffffffffffffff160217905550808273ffffffffffffffffffffffffffffffffffffffff168473ffffffffffffffffffffffffffffffffffffffff167fddf252ad1be2c89b69c2b068fc378daa952ba7f163c4a11628f55a4df523b3ef60405160405180910390a46113a2838383611633565b505050565b8173ffffffffffffffffffffffffffffffffffffffff168373ffffffffffffffffffffffffffffffffffffffff161415611416576040517f08c379a000000000000000000000000000000000000000000000000000000000815260040161140d9061229a565b60405180910390fd5b80600560008573ffffffffffffffffffffffffffffffffffffffff1673ffffffffffffffffffffffffffffffffffffffff16815260200190815260200160002060008473ffffffffffffffffffffffffffffffffffffffff1673ffffffffffffffffffffffffffffffffffffffff16815260200190815260200160002060006101000a81548160ff0219169083151502179055508173ffffffffffffffffffffffffffffffffffffffff168373ffffffffffffffffffffffffffffffffffffffff167f17307eab39ab6107e8899845ad3d59bd9653f200f220920489ca2b5937696c318360405161150791906121c2565b60405180910390a3505050565b61151f848484611140565b61152b84848484611638565b61156a576040517f08c379a00000000000000000000000000000000000000000000000000000000081526004016115619061221a565b60405180910390fd5b50505050565b606060405180602001604052806000815250905090565b606061159282610f35565b6115d1576040517f08c379a00000000000000000000000000000000000000000000000000000000081526004016115c8906123ba565b60405180910390fd5b60006115db611570565b905060008151116115fb5760405180602001604052806000815250611626565b80611605846117cf565b604051602001611616929190612100565b6040516020818303038152906040525b915050919050565b505050565b505050565b60006116598473ffffffffffffffffffffffffffffffffffffffff1661197c565b156117c2578373ffffffffffffffffffffffffffffffffffffffff1663150b7a02611682610fa1565b8786866040518563ffffffff1660e01b81526004016116a49493929190612176565b602060405180830381600087803b1580156116be57600080fd5b505af19250505080156116ef57506040513d601f19601f820116820180604052508101906116ec9190611d4b565b60015b611772573d806000811461171f576040519150601f19603f3d011682016040523d82523d6000602084013e611724565b606091505b5060008151141561176a576040517f08c379a00000000000000000000000000000000000000000000000000000000081526004016117619061221a565b60405180910390fd5b805181602001fd5b63150b7a0260e01b7bffffffffffffffffffffffffffffffffffffffffffffffffffffffff1916817bffffffffffffffffffffffffffffffffffffffffffffffffffffffff1916149150506117c7565b600190505b949350505050565b60606000821415611817576040518060400160405280600181526020017f30000000000000000000000000000000000000000000000000000000000000008152509050611977565b600082905060005b60008214611849578080611832906126f7565b915050600a826118429190612555565b915061181f565b60008167ffffffffffffffff81111561188b577f4e487b7100000000000000000000000000000000000000000000000000000000600052604160045260246000fd5b6040519080825280601f01601f1916602001820160405280156118bd5781602001600182028036833780820191505090505b5090505b60008514611970576001826118d69190612586565b9150600a856118e59190612740565b60306118f191906124ff565b60f81b81838151811061192d577f4e487b7100000000000000000000000000000000000000000000000000000000600052603260045260246000fd5b60200101907effffffffffffffffffffffffffffffffffffffffffffffffffffffffffffff1916908160001a905350600a856119699190612555565b94506118c1565b8093505050505b919050565b6000808273ffffffffffffffffffffffffffffffffffffffff163b119050919050565b8280546119ab90612694565b90600052602060002090601f0160209004810192826119cd5760008555611a14565b82601f106119e657805160ff1916838001178555611a14565b82800160010185558215611a14579182015b82811115611a135782518255916020019190600101906119f8565b5b509050611a219190611a25565b5090565b5b80821115611a3e576000816000905550600101611a26565b5090565b6000611a55611a508461245a565b612435565b905082815260208101848484011115611a6d57600080fd5b611a78848285612652565b509392505050565b6000611a93611a8e8461248b565b612435565b905082815260208101848484011115611aab57600080fd5b611ab6848285612652565b509392505050565b600081359050611acd81612cbc565b92915050565b600081359050611ae281612cd3565b92915050565b600081359050611af781612cea565b92915050565b600081519050611b0c81612cea565b92915050565b600082601f830112611b2357600080fd5b8135611b33848260208601611a42565b91505092915050565b600082601f830112611b4d57600080fd5b8135611b5d848260208601611a80565b91505092915050565b600081359050611b7581612d01565b92915050565b600060208284031215611b8d57600080fd5b6000611b9b84828501611abe565b91505092915050565b60008060408385031215611bb757600080fd5b6000611bc585828601611abe565b9250506020611bd685828601611abe565b9150509250929050565b600080600060608486031215611bf557600080fd5b6000611c0386828701611abe565b9350506020611c1486828701611abe565b9250506040611c2586828701611b66565b9150509250925092565b60008060008060808587031215611c4557600080fd5b6000611c5387828801611abe565b9450506020611c6487828801611abe565b9350506040611c7587828801611b66565b925050606085013567ffffffffffffffff811115611c9257600080fd5b611c9e87828801611b12565b91505092959194509250565b60008060408385031215611cbd57600080fd5b6000611ccb85828601611abe565b9250506020611cdc85828601611ad3565b9150509250929050565b60008060408385031215611cf957600080fd5b6000611d0785828601611abe565b9250506020611d1885828601611b66565b9150509250929050565b600060208284031215611d3457600080fd5b6000611d4284828501611ae8565b91505092915050565b600060208284031215611d5d57600080fd5b6000611d6b84828501611afd565b91505092915050565b600060208284031215611d8657600080fd5b6000611d9484828501611b66565b91505092915050565b60008060408385031215611db057600080fd5b6000611dbe85828601611b66565b925050602083013567ffffffffffffffff811115611ddb57600080fd5b611de785828601611b3c565b9150509250929050565b611dfa816125ba565b82525050565b611e09816125cc565b82525050565b6000611e1a826124bc565b611e2481856124d2565b9350611e34818560208601612661565b611e3d8161282d565b840191505092915050565b611e518161262e565b82525050565b6000611e62826124c7565b611e6c81856124e3565b9350611e7c818560208601612661565b611e858161282d565b840191505092915050565b6000611e9b826124c7565b611ea581856124f4565b9350611eb5818560208601612661565b80840191505092915050565b6000611ece6032836124e3565b9150611ed98261283e565b604082019050919050565b6000611ef16025836124e3565b9150611efc8261288d565b604082019050919050565b6000611f14601c836124e3565b9150611f1f826128dc565b602082019050919050565b6000611f376024836124e3565b9150611f4282612905565b604082019050919050565b6000611f5a6019836124e3565b9150611f6582612954565b602082019050919050565b6000611f7d602c836124e3565b9150611f888261297d565b604082019050919050565b6000611fa06038836124e3565b9150611fab826129cc565b604082019050919050565b6000611fc3602a836124e3565b9150611fce82612a1b565b604082019050919050565b6000611fe66029836124e3565b9150611ff182612a6a565b604082019050919050565b6000612009602e836124e3565b915061201482612ab9565b604082019050919050565b600061202c6020836124e3565b915061203782612b08565b602082019050919050565b600061204f6031836124e3565b915061205a82612b31565b604082019050919050565b6000612072602c836124e3565b915061207d82612b80565b604082019050919050565b6000612095602f836124e3565b91506120a082612bcf565b604082019050919050565b60006120b86021836124e3565b91506120c382612c1e565b604082019050919050565b60006120db6031836124e3565b91506120e682612c6d565b604082019050919050565b6120fa81612624565b82525050565b600061210c8285611e90565b91506121188284611e90565b91508190509392505050565b60006020820190506121396000830184611df1565b92915050565b60006060820190506121546000830186611df1565b6121616020830185611df1565b61216e60408301846120f1565b949350505050565b600060808201905061218b6000830187611df1565b6121986020830186611df1565b6121a560408301856120f1565b81810360608301526121b78184611e0f565b905095945050505050565b60006020820190506121d76000830184611e00565b92915050565b60006020820190506121f26000830184611e48565b92915050565b600060208201905081810360008301526122128184611e57565b905092915050565b6000602082019050818103600083015261223381611ec1565b9050919050565b6000602082019050818103600083015261225381611ee4565b9050919050565b6000602082019050818103600083015261227381611f07565b9050919050565b6000602082019050818103600083015261229381611f2a565b9050919050565b600060208201905081810360008301526122b381611f4d565b9050919050565b600060208201905081810360008301526122d381611f70565b9050919050565b600060208201905081810360008301526122f381611f93565b9050919050565b6000602082019050818103600083015261231381611fb6565b9050919050565b6000602082019050818103600083015261233381611fd9565b9050919050565b6000602082019050818103600083015261235381611ffc565b9050919050565b600060208201905081810360008301526123738161201f565b9050919050565b6000602082019050818103600083015261239381612042565b9050919050565b600060208201905081810360008301526123b381612065565b9050919050565b600060208201905081810360008301526123d381612088565b9050919050565b600060208201905081810360008301526123f3816120ab565b9050919050565b60006020820190508181036000830152612413816120ce565b9050919050565b600060208201905061242f60008301846120f1565b92915050565b600061243f612450565b905061244b82826126c6565b919050565b6000604051905090565b600067ffffffffffffffff821115612475576124746127fe565b5b61247e8261282d565b9050602081019050919050565b600067ffffffffffffffff8211156124a6576124a56127fe565b5b6124af8261282d565b9050602081019050919050565b600081519050919050565b600081519050919050565b600082825260208201905092915050565b600082825260208201905092915050565b600081905092915050565b600061250a82612624565b915061251583612624565b9250827fffffffffffffffffffffffffffffffffffffffffffffffffffffffffffffffff0382111561254a57612549612771565b5b828201905092915050565b600061256082612624565b915061256b83612624565b92508261257b5761257a6127a0565b5b828204905092915050565b600061259182612624565b915061259c83612624565b9250828210156125af576125ae612771565b5b828203905092915050565b60006125c582612604565b9050919050565b60008115159050919050565b60007fffffffff0000000000000000000000000000000000000000000000000000000082169050919050565b600073ffffffffffffffffffffffffffffffffffffffff82169050919050565b6000819050919050565b600061263982612640565b9050919050565b600061264b82612604565b9050919050565b82818337600083830152505050565b60005b8381101561267f578082015181840152602081019050612664565b8381111561268e576000848401525b50505050565b600060028204905060018216806126ac57607f821691505b602082108114156126c0576126bf6127cf565b5b50919050565b6126cf8261282d565b810181811067ffffffffffffffff821117156126ee576126ed6127fe565b5b80604052505050565b600061270282612624565b91507fffffffffffffffffffffffffffffffffffffffffffffffffffffffffffffffff82141561273557612734612771565b5b600182019050919050565b600061274b82612624565b915061275683612624565b925082612766576127656127a0565b5b828206905092915050565b7f4e487b7100000000000000000000000000000000000000000000000000000000600052601160045260246000fd5b7f4e487b7100000000000000000000000000000000000000000000000000000000600052601260045260246000fd5b7f4e487b7100000000000000000000000000000000000000000000000000000000600052602260045260246000fd5b7f4e487b7100000000000000000000000000000000000000000000000000000000600052604160045260246000fd5b6000601f19601f8301169050919050565b7f4552433732313a207472616e7366657220746f206e6f6e20455243373231526560008201527f63656976657220696d706c656d656e7465720000000000000000000000000000602082015250565b7f4552433732313a207472616e736665722066726f6d20696e636f72726563742060008201527f6f776e6572000000000000000000000000000000000000000000000000000000602082015250565b7f4552433732313a20746f6b656e20616c7265616479206d696e74656400000000600082015250565b7f4552433732313a207472616e7366657220746f20746865207a65726f2061646460008201527f7265737300000000000000000000000000000000000000000000000000000000602082015250565b7f4552433732313a20617070726f766520746f2063616c6c657200000000000000600082015250565b7f4552433732313a206f70657261746f7220717565727920666f72206e6f6e657860008201527f697374656e7420746f6b656e0000000000000000000000000000000000000000602082015250565b7f4552433732313a20617070726f76652063616c6c6572206973206e6f74206f7760008201527f6e6572206e6f7220617070726f76656420666f7220616c6c0000000000000000602082015250565b7f4552433732313a2062616c616e636520717565727920666f7220746865207a6560008201527f726f206164647265737300000000000000000000000000000000000000000000602082015250565b7f4552433732313a206f776e657220717565727920666f72206e6f6e657869737460008201527f656e7420746f6b656e0000000000000000000000000000000000000000000000602082015250565b7f45524337323155524953746f726167653a2055524920736574206f66206e6f6e60008201527f6578697374656e7420746f6b656e000000000000000000000000000000000000602082015250565b7f4552433732313a206d696e7420746f20746865207a65726f2061646472657373600082015250565b7f45524337323155524953746f726167653a2055524920717565727920666f722060008201527f6e6f6e6578697374656e7420746f6b656e000000000000000000000000000000602082015250565b7f4552433732313a20617070726f76656420717565727920666f72206e6f6e657860008201527f697374656e7420746f6b656e0000000000000000000000000000000000000000602082015250565b7f4552433732314d657461646174613a2055524920717565727920666f72206e6f60008201527f6e6578697374656e7420746f6b656e0000000000000000000000000000000000602082015250565b7f4552433732313a20617070726f76616c20746f2063757272656e74206f776e6560008201527f7200000000000000000000000000000000000000000000000000000000000000602082015250565b7f4552433732313a207472616e736665722063616c6c6572206973206e6f74206f60008201527f776e6572206e6f7220617070726f766564000000000000000000000000000000602082015250565b612cc5816125ba565b8114612cd057600080fd5b50565b612cdc816125cc565b8114612ce757600080fd5b50565b612cf3816125d8565b8114612cfe57600080fd5b50565b612d0a81612624565b8114612d1557600080fd5b5056fea264697066735822122059575669896362b4a51b6c7e50946b9ef3d679a0432cc4bffa9fb577a69f40ef64736f6c63430008010033",
  "linkReferences": {},
  "deployedLinkReferences": {}
}