{
  "_format": "hh-sol-artifact-1",
  "contractName": "Prescription",
  "sourceName": "contracts/nft/Prescription.sol",
  "abi": [
    {
      "inputs": [],
      "stateMutability": "nonpayable",
      "type": "constructor"
    },
    {
      "anonymous": false,
      "inputs": [
        {
          "indexed": true,
          "internalType": "address",
          "name": "owner",
          "type": "address"
        },
        {
          "indexed": true,
          "internalType": "address",
          "name": "approved",
          "type": "address"
        },
        {
          "indexed": true,
          "internalType": "uint256",
          "name": "tokenId",
          "type": "uint256"
        }
      ],
      "name": "Approval",
      "type": "event"
    },
    {
      "anonymous": false,
      "inputs": [
        {
          "indexed": true,
          "internalType": "address",
          "name": "owner",
          "type": "address"
        },
        {
          "indexed": true,
          "internalType": "address",
          "name": "operator",
          "type": "address"
        },
        {
          "indexed": false,
          "internalType": "bool",
          "name": "approved",
          "type": "bool"
        }
      ],
      "name": "ApprovalForAll",
      "type": "event"
    },
    {
      "anonymous": false,
      "inputs": [
        {
          "indexed": true,
          "internalType": "address",
          "name": "from",
          "type": "address"
        },
        {
          "indexed": true,
          "internalType": "address",
          "name": "to",
          "type": "address"
        },
        {
          "indexed": true,
          "internalType": "uint256",
          "name": "tokenId",
          "type": "uint256"
        }
      ],
      "name": "Transfer",
      "type": "event"
    },
    {
      "inputs": [
        {
          "internalType": "address",
          "name": "to",
          "type": "address"
        },
        {
          "internalType": "uint256",
          "name": "tokenId",
          "type": "uint256"
        }
      ],
      "name": "approve",
      "outputs": [],
      "stateMutability": "nonpayable",
      "type": "function"
    },
    {
      "inputs": [
        {
          "internalType": "address",
          "name": "owner",
          "type": "address"
        }
      ],
      "name": "balanceOf",
      "outputs": [
        {
          "internalType": "uint256",
          "name": "",
          "type": "uint256"
        }
      ],
      "stateMutability": "view",
      "type": "function"
    },
    {
      "inputs": [
        {
          "internalType": "string",
          "name": "tokenURI",
          "type": "string"
        },
        {
          "internalType": "address",
          "name": "patient",
          "type": "address"
        }
      ],
      "name": "create",
      "outputs": [
        {
          "internalType": "uint256",
          "name": "",
          "type": "uint256"
        }
      ],
      "stateMutability": "nonpayable",
      "type": "function"
    },
    {
      "inputs": [
        {
          "internalType": "uint256",
          "name": "tokenId",
          "type": "uint256"
        }
      ],
      "name": "getApproved",
      "outputs": [
        {
          "internalType": "address",
          "name": "",
          "type": "address"
        }
      ],
      "stateMutability": "view",
      "type": "function"
    },
    {
      "inputs": [],
      "name": "getTokenAmount",
      "outputs": [
        {
          "internalType": "uint256",
          "name": "",
          "type": "uint256"
        }
      ],
      "stateMutability": "view",
      "type": "function"
    },
    {
      "inputs": [
        {
          "internalType": "address",
          "name": "owner",
          "type": "address"
        },
        {
          "internalType": "address",
          "name": "operator",
          "type": "address"
        }
      ],
      "name": "isApprovedForAll",
      "outputs": [
        {
          "internalType": "bool",
          "name": "",
          "type": "bool"
        }
      ],
      "stateMutability": "view",
      "type": "function"
    },
    {
      "inputs": [],
      "name": "name",
      "outputs": [
        {
          "internalType": "string",
          "name": "",
          "type": "string"
        }
      ],
      "stateMutability": "view",
      "type": "function"
    },
    {
      "inputs": [],
      "name": "owner",
      "outputs": [
        {
          "internalType": "address",
          "name": "",
          "type": "address"
        }
      ],
      "stateMutability": "view",
      "type": "function"
    },
    {
      "inputs": [
        {
          "internalType": "uint256",
          "name": "tokenId",
          "type": "uint256"
        }
      ],
      "name": "ownerOf",
      "outputs": [
        {
          "internalType": "address",
          "name": "",
          "type": "address"
        }
      ],
      "stateMutability": "view",
      "type": "function"
    },
    {
      "inputs": [
        {
          "internalType": "address",
          "name": "from",
          "type": "address"
        },
        {
          "internalType": "address",
          "name": "to",
          "type": "address"
        },
        {
          "internalType": "uint256",
          "name": "tokenId",
          "type": "uint256"
        }
      ],
      "name": "safeTransferFrom",
      "outputs": [],
      "stateMutability": "nonpayable",
      "type": "function"
    },
    {
      "inputs": [
        {
          "internalType": "address",
          "name": "from",
          "type": "address"
        },
        {
          "internalType": "address",
          "name": "to",
          "type": "address"
        },
        {
          "internalType": "uint256",
          "name": "tokenId",
          "type": "uint256"
        },
        {
          "internalType": "bytes",
          "name": "_data",
          "type": "bytes"
        }
      ],
      "name": "safeTransferFrom",
      "outputs": [],
      "stateMutability": "nonpayable",
      "type": "function"
    },
    {
      "inputs": [
        {
          "internalType": "address",
          "name": "operator",
          "type": "address"
        },
        {
          "internalType": "bool",
          "name": "approved",
          "type": "bool"
        }
      ],
      "name": "setApprovalForAll",
      "outputs": [],
      "stateMutability": "nonpayable",
      "type": "function"
    },
    {
      "inputs": [
        {
          "internalType": "bytes4",
          "name": "interfaceId",
          "type": "bytes4"
        }
      ],
      "name": "supportsInterface",
      "outputs": [
        {
          "internalType": "bool",
          "name": "",
          "type": "bool"
        }
      ],
      "stateMutability": "view",
      "type": "function"
    },
    {
      "inputs": [],
      "name": "symbol",
      "outputs": [
        {
          "internalType": "string",
          "name": "",
          "type": "string"
        }
      ],
      "stateMutability": "view",
      "type": "function"
    },
    {
      "inputs": [
        {
          "internalType": "uint256",
          "name": "tokenId",
          "type": "uint256"
        }
      ],
      "name": "tokenURI",
      "outputs": [
        {
          "internalType": "string",
          "name": "",
          "type": "string"
        }
      ],
      "stateMutability": "view",
      "type": "function"
    },
    {
      "inputs": [
        {
          "internalType": "address",
          "name": "from",
          "type": "address"
        },
        {
          "internalType": "address",
          "name": "to",
          "type": "address"
        },
        {
          "internalType": "uint256",
          "name": "tokenId",
          "type": "uint256"
        }
      ],
      "name": "transferFrom",
      "outputs": [],
      "stateMutability": "nonpayable",
      "type": "function"
    }
  ],
  "bytecode": "0x60806040523480156200001157600080fd5b506040518060400160405280600c81526020017f507265736372697074696f6e00000000000000000000000000000000000000008152506040518060400160405280600381526020017f5053540000000000000000000000000000000000000000000000000000000000815250816000908051906020019062000096929190620000f9565b508060019080519060200190620000af929190620000f9565b50505033600860006101000a81548173ffffffffffffffffffffffffffffffffffffffff021916908373ffffffffffffffffffffffffffffffffffffffff1602179055506200020e565b8280546200010790620001a9565b90600052602060002090601f0160209004810192826200012b576000855562000177565b82601f106200014657805160ff191683800117855562000177565b8280016001018555821562000177579182015b828111156200017657825182559160200191906001019062000159565b5b5090506200018691906200018a565b5090565b5b80821115620001a55760008160009055506001016200018b565b5090565b60006002820490506001821680620001c257607f821691505b60208210811415620001d957620001d8620001df565b5b50919050565b7f4e487b7100000000000000000000000000000000000000000000000000000000600052602260045260246000fd5b612dfb806200021e6000396000f3fe608060405234801561001057600080fd5b50600436106101005760003560e01c806375f91ec811610097578063a22cb46511610066578063a22cb465146102c1578063b88d4fde146102dd578063c87b56dd146102f9578063e985e9c51461032957610100565b806375f91ec81461023757806384b47b0f146102555780638da5cb5b1461028557806395d89b41146102a357610100565b806323b872dd116100d357806323b872dd1461019f57806342842e0e146101bb5780636352211e146101d757806370a082311461020757610100565b806301ffc9a71461010557806306fdde0314610135578063081812fc14610153578063095ea7b314610183575b600080fd5b61011f600480360381019061011a9190611d7c565b610359565b60405161012c919061221c565b60405180910390f35b61013d61043b565b60405161014a9190612237565b60405180910390f35b61016d60048036038101906101689190611e22565b6104cd565b60405161017a91906121b5565b60405180910390f35b61019d60048036038101906101989190611d40565b610552565b005b6101b960048036038101906101b49190611c3a565b61066a565b005b6101d560048036038101906101d09190611c3a565b6106ca565b005b6101f160048036038101906101ec9190611e22565b6106ea565b6040516101fe91906121b5565b60405180910390f35b610221600480360381019061021c9190611bd5565b61079c565b60405161022e9190612499565b60405180910390f35b61023f610854565b60405161024c9190612499565b60405180910390f35b61026f600480360381019061026a9190611dce565b610865565b60405161027c9190612499565b60405180910390f35b61028d61099d565b60405161029a91906121b5565b60405180910390f35b6102ab6109c3565b6040516102b89190612237565b60405180910390f35b6102db60048036038101906102d69190611d04565b610a55565b005b6102f760048036038101906102f29190611c89565b610a6b565b005b610313600480360381019061030e9190611e22565b610acd565b6040516103209190612237565b60405180910390f35b610343600480360381019061033e9190611bfe565b610c1f565b604051610350919061221c565b60405180910390f35b60007f80ac58cd000000000000000000000000000000000000000000000000000000007bffffffffffffffffffffffffffffffffffffffffffffffffffffffff1916827bffffffffffffffffffffffffffffffffffffffffffffffffffffffff1916148061042457507f5b5e139f000000000000000000000000000000000000000000000000000000007bffffffffffffffffffffffffffffffffffffffffffffffffffffffff1916827bffffffffffffffffffffffffffffffffffffffffffffffffffffffff1916145b80610434575061043382610cb3565b5b9050919050565b60606000805461044a906126ef565b80601f0160208091040260200160405190810160405280929190818152602001828054610476906126ef565b80156104c35780601f10610498576101008083540402835291602001916104c3565b820191906000526020600020905b8154815290600101906020018083116104a657829003601f168201915b5050505050905090565b60006104d882610d1d565b610517576040517f08c379a000000000000000000000000000000000000000000000000000000000815260040161050e906123f9565b60405180910390fd5b6004600083815260200190815260200160002060009054906101000a900473ffffffffffffffffffffffffffffffffffffffff169050919050565b600061055d826106ea565b90508073ffffffffffffffffffffffffffffffffffffffff168373ffffffffffffffffffffffffffffffffffffffff1614156105ce576040517f08c379a00000000000000000000000000000000000000000000000000000000081526004016105c590612459565b60405180910390fd5b8073ffffffffffffffffffffffffffffffffffffffff166105ed610d89565b73ffffffffffffffffffffffffffffffffffffffff16148061061c575061061b81610616610d89565b610c1f565b5b61065b576040517f08c379a000000000000000000000000000000000000000000000000000000000815260040161065290612339565b60405180910390fd5b6106658383610d91565b505050565b61067b610675610d89565b82610e4a565b6106ba576040517f08c379a00000000000000000000000000000000000000000000000000000000081526004016106b190612479565b60405180910390fd5b6106c5838383610f28565b505050565b6106e583838360405180602001604052806000815250610a6b565b505050565b6000806002600084815260200190815260200160002060009054906101000a900473ffffffffffffffffffffffffffffffffffffffff169050600073ffffffffffffffffffffffffffffffffffffffff168173ffffffffffffffffffffffffffffffffffffffff161415610793576040517f08c379a000000000000000000000000000000000000000000000000000000000815260040161078a90612379565b60405180910390fd5b80915050919050565b60008073ffffffffffffffffffffffffffffffffffffffff168273ffffffffffffffffffffffffffffffffffffffff16141561080d576040517f08c379a000000000000000000000000000000000000000000000000000000000815260040161080490612359565b60405180910390fd5b600360008373ffffffffffffffffffffffffffffffffffffffff1673ffffffffffffffffffffffffffffffffffffffff168152602001908152602001600020549050919050565b6000610860600761118f565b905090565b6000600860009054906101000a900473ffffffffffffffffffffffffffffffffffffffff1673ffffffffffffffffffffffffffffffffffffffff163273ffffffffffffffffffffffffffffffffffffffff16146108f7576040517f08c379a00000000000000000000000000000000000000000000000000000000081526004016108ee906122f9565b60405180910390fd5b600073ffffffffffffffffffffffffffffffffffffffff168273ffffffffffffffffffffffffffffffffffffffff161415610967576040517f08c379a000000000000000000000000000000000000000000000000000000000815260040161095e90612419565b60405180910390fd5b610971600761119d565b600061097d600761118f565b905061098983826111b3565b610993818561138d565b8091505092915050565b600860009054906101000a900473ffffffffffffffffffffffffffffffffffffffff1681565b6060600180546109d2906126ef565b80601f01602080910402602001604051908101604052809291908181526020018280546109fe906126ef565b8015610a4b5780601f10610a2057610100808354040283529160200191610a4b565b820191906000526020600020905b815481529060010190602001808311610a2e57829003601f168201915b5050505050905090565b610a67610a60610d89565b8383611401565b5050565b610a7c610a76610d89565b83610e4a565b610abb576040517f08c379a0000000000000000000000000000000000000000000000000000000008152600401610ab290612479565b60405180910390fd5b610ac78484848461156e565b50505050565b6060610ad882610d1d565b610b17576040517f08c379a0000000000000000000000000000000000000000000000000000000008152600401610b0e906123d9565b60405180910390fd5b6000600660008481526020019081526020016000208054610b37906126ef565b80601f0160208091040260200160405190810160405280929190818152602001828054610b63906126ef565b8015610bb05780601f10610b8557610100808354040283529160200191610bb0565b820191906000526020600020905b815481529060010190602001808311610b9357829003601f168201915b505050505090506000610bc16115ca565b9050600081511415610bd7578192505050610c1a565b600082511115610c0c578082604051602001610bf4929190612191565b60405160208183030381529060405292505050610c1a565b610c15846115e1565b925050505b919050565b6000600560008473ffffffffffffffffffffffffffffffffffffffff1673ffffffffffffffffffffffffffffffffffffffff16815260200190815260200160002060008373ffffffffffffffffffffffffffffffffffffffff1673ffffffffffffffffffffffffffffffffffffffff16815260200190815260200160002060009054906101000a900460ff16905092915050565b60007f01ffc9a7000000000000000000000000000000000000000000000000000000007bffffffffffffffffffffffffffffffffffffffffffffffffffffffff1916827bffffffffffffffffffffffffffffffffffffffffffffffffffffffff1916149050919050565b60008073ffffffffffffffffffffffffffffffffffffffff166002600084815260200190815260200160002060009054906101000a900473ffffffffffffffffffffffffffffffffffffffff1673ffffffffffffffffffffffffffffffffffffffff1614159050919050565b600033905090565b816004600083815260200190815260200160002060006101000a81548173ffffffffffffffffffffffffffffffffffffffff021916908373ffffffffffffffffffffffffffffffffffffffff160217905550808273ffffffffffffffffffffffffffffffffffffffff16610e04836106ea565b73ffffffffffffffffffffffffffffffffffffffff167f8c5be1e5ebec7d5bd14f71427d1e84f3dd0314c0f7b2291e5b200ac8c7c3b92560405160405180910390a45050565b6000610e5582610d1d565b610e94576040517f08c379a0000000000000000000000000000000000000000000000000000000008152600401610e8b90612319565b60405180910390fd5b6000610e9f836106ea565b90508073ffffffffffffffffffffffffffffffffffffffff168473ffffffffffffffffffffffffffffffffffffffff161480610ee15750610ee08185610c1f565b5b80610f1f57508373ffffffffffffffffffffffffffffffffffffffff16610f07846104cd565b73ffffffffffffffffffffffffffffffffffffffff16145b91505092915050565b8273ffffffffffffffffffffffffffffffffffffffff16610f48826106ea565b73ffffffffffffffffffffffffffffffffffffffff1614610f9e576040517f08c379a0000000000000000000000000000000000000000000000000000000008152600401610f9590612279565b60405180910390fd5b600073ffffffffffffffffffffffffffffffffffffffff168273ffffffffffffffffffffffffffffffffffffffff16141561100e576040517f08c379a0000000000000000000000000000000000000000000000000000000008152600401611005906122b9565b60405180910390fd5b611019838383611688565b611024600082610d91565b6001600360008573ffffffffffffffffffffffffffffffffffffffff1673ffffffffffffffffffffffffffffffffffffffff16815260200190815260200160002060008282546110749190612605565b925050819055506001600360008473ffffffffffffffffffffffffffffffffffffffff1673ffffffffffffffffffffffffffffffffffffffff16815260200190815260200160002060008282546110cb919061257e565b92505081905550816002600083815260200190815260200160002060006101000a81548173ffffffffffffffffffffffffffffffffffffffff021916908373ffffffffffffffffffffffffffffffffffffffff160217905550808273ffffffffffffffffffffffffffffffffffffffff168473ffffffffffffffffffffffffffffffffffffffff167fddf252ad1be2c89b69c2b068fc378daa952ba7f163c4a11628f55a4df523b3ef60405160405180910390a461118a83838361168d565b505050565b600081600001549050919050565b6001816000016000828254019250508190555050565b600073ffffffffffffffffffffffffffffffffffffffff168273ffffffffffffffffffffffffffffffffffffffff161415611223576040517f08c379a000000000000000000000000000000000000000000000000000000000815260040161121a906123b9565b60405180910390fd5b61122c81610d1d565b1561126c576040517f08c379a000000000000000000000000000000000000000000000000000000000815260040161126390612299565b60405180910390fd5b61127860008383611688565b6001600360008473ffffffffffffffffffffffffffffffffffffffff1673ffffffffffffffffffffffffffffffffffffffff16815260200190815260200160002060008282546112c8919061257e565b92505081905550816002600083815260200190815260200160002060006101000a81548173ffffffffffffffffffffffffffffffffffffffff021916908373ffffffffffffffffffffffffffffffffffffffff160217905550808273ffffffffffffffffffffffffffffffffffffffff16600073ffffffffffffffffffffffffffffffffffffffff167fddf252ad1be2c89b69c2b068fc378daa952ba7f163c4a11628f55a4df523b3ef60405160405180910390a46113896000838361168d565b5050565b61139682610d1d565b6113d5576040517f08c379a00000000000000000000000000000000000000000000000000000000081526004016113cc90612399565b60405180910390fd5b806006600084815260200190815260200160002090805190602001906113fc9291906119f9565b505050565b8173ffffffffffffffffffffffffffffffffffffffff168373ffffffffffffffffffffffffffffffffffffffff161415611470576040517f08c379a0000000000000000000000000000000000000000000000000000000008152600401611467906122d9565b60405180910390fd5b80600560008573ffffffffffffffffffffffffffffffffffffffff1673ffffffffffffffffffffffffffffffffffffffff16815260200190815260200160002060008473ffffffffffffffffffffffffffffffffffffffff1673ffffffffffffffffffffffffffffffffffffffff16815260200190815260200160002060006101000a81548160ff0219169083151502179055508173ffffffffffffffffffffffffffffffffffffffff168373ffffffffffffffffffffffffffffffffffffffff167f17307eab39ab6107e8899845ad3d59bd9653f200f220920489ca2b5937696c3183604051611561919061221c565b60405180910390a3505050565b611579848484610f28565b61158584848484611692565b6115c4576040517f08c379a00000000000000000000000000000000000000000000000000000000081526004016115bb90612259565b60405180910390fd5b50505050565b606060405180602001604052806000815250905090565b60606115ec82610d1d565b61162b576040517f08c379a000000000000000000000000000000000000000000000000000000000815260040161162290612439565b60405180910390fd5b60006116356115ca565b905060008151116116555760405180602001604052806000815250611680565b8061165f84611829565b604051602001611670929190612191565b6040516020818303038152906040525b915050919050565b505050565b505050565b60006116b38473ffffffffffffffffffffffffffffffffffffffff166119d6565b1561181c578373ffffffffffffffffffffffffffffffffffffffff1663150b7a026116dc610d89565b8786866040518563ffffffff1660e01b81526004016116fe94939291906121d0565b602060405180830381600087803b15801561171857600080fd5b505af192505050801561174957506040513d601f19601f820116820180604052508101906117469190611da5565b60015b6117cc573d8060008114611779576040519150601f19603f3d011682016040523d82523d6000602084013e61177e565b606091505b506000815114156117c4576040517f08c379a00000000000000000000000000000000000000000000000000000000081526004016117bb90612259565b60405180910390fd5b805181602001fd5b63150b7a0260e01b7bffffffffffffffffffffffffffffffffffffffffffffffffffffffff1916817bffffffffffffffffffffffffffffffffffffffffffffffffffffffff191614915050611821565b600190505b949350505050565b60606000821415611871576040518060400160405280600181526020017f300000000000000000000000000000000000000000000000000000000000000081525090506119d1565b600082905060005b600082146118a357808061188c90612752565b915050600a8261189c91906125d4565b9150611879565b60008167ffffffffffffffff8111156118e5577f4e487b7100000000000000000000000000000000000000000000000000000000600052604160045260246000fd5b6040519080825280601f01601f1916602001820160405280156119175781602001600182028036833780820191505090505b5090505b600085146119ca576001826119309190612605565b9150600a8561193f919061279b565b603061194b919061257e565b60f81b818381518110611987577f4e487b7100000000000000000000000000000000000000000000000000000000600052603260045260246000fd5b60200101907effffffffffffffffffffffffffffffffffffffffffffffffffffffffffffff1916908160001a905350600a856119c391906125d4565b945061191b565b8093505050505b919050565b6000808273ffffffffffffffffffffffffffffffffffffffff163b119050919050565b828054611a05906126ef565b90600052602060002090601f016020900481019282611a275760008555611a6e565b82601f10611a4057805160ff1916838001178555611a6e565b82800160010185558215611a6e579182015b82811115611a6d578251825591602001919060010190611a52565b5b509050611a7b9190611a7f565b5090565b5b80821115611a98576000816000905550600101611a80565b5090565b6000611aaf611aaa846124d9565b6124b4565b905082815260208101848484011115611ac757600080fd5b611ad28482856126ad565b509392505050565b6000611aed611ae88461250a565b6124b4565b905082815260208101848484011115611b0557600080fd5b611b108482856126ad565b509392505050565b600081359050611b2781612d69565b92915050565b600081359050611b3c81612d80565b92915050565b600081359050611b5181612d97565b92915050565b600081519050611b6681612d97565b92915050565b600082601f830112611b7d57600080fd5b8135611b8d848260208601611a9c565b91505092915050565b600082601f830112611ba757600080fd5b8135611bb7848260208601611ada565b91505092915050565b600081359050611bcf81612dae565b92915050565b600060208284031215611be757600080fd5b6000611bf584828501611b18565b91505092915050565b60008060408385031215611c1157600080fd5b6000611c1f85828601611b18565b9250506020611c3085828601611b18565b9150509250929050565b600080600060608486031215611c4f57600080fd5b6000611c5d86828701611b18565b9350506020611c6e86828701611b18565b9250506040611c7f86828701611bc0565b9150509250925092565b60008060008060808587031215611c9f57600080fd5b6000611cad87828801611b18565b9450506020611cbe87828801611b18565b9350506040611ccf87828801611bc0565b925050606085013567ffffffffffffffff811115611cec57600080fd5b611cf887828801611b6c565b91505092959194509250565b60008060408385031215611d1757600080fd5b6000611d2585828601611b18565b9250506020611d3685828601611b2d565b9150509250929050565b60008060408385031215611d5357600080fd5b6000611d6185828601611b18565b9250506020611d7285828601611bc0565b9150509250929050565b600060208284031215611d8e57600080fd5b6000611d9c84828501611b42565b91505092915050565b600060208284031215611db757600080fd5b6000611dc584828501611b57565b91505092915050565b60008060408385031215611de157600080fd5b600083013567ffffffffffffffff811115611dfb57600080fd5b611e0785828601611b96565b9250506020611e1885828601611b18565b9150509250929050565b600060208284031215611e3457600080fd5b6000611e4284828501611bc0565b91505092915050565b611e5481612639565b82525050565b611e638161264b565b82525050565b6000611e748261253b565b611e7e8185612551565b9350611e8e8185602086016126bc565b611e9781612888565b840191505092915050565b6000611ead82612546565b611eb78185612562565b9350611ec78185602086016126bc565b611ed081612888565b840191505092915050565b6000611ee682612546565b611ef08185612573565b9350611f008185602086016126bc565b80840191505092915050565b6000611f19603283612562565b9150611f2482612899565b604082019050919050565b6000611f3c602583612562565b9150611f47826128e8565b604082019050919050565b6000611f5f601c83612562565b9150611f6a82612937565b602082019050919050565b6000611f82602483612562565b9150611f8d82612960565b604082019050919050565b6000611fa5601983612562565b9150611fb0826129af565b602082019050919050565b6000611fc8600983612562565b9150611fd3826129d8565b602082019050919050565b6000611feb602c83612562565b9150611ff682612a01565b604082019050919050565b600061200e603883612562565b915061201982612a50565b604082019050919050565b6000612031602a83612562565b915061203c82612a9f565b604082019050919050565b6000612054602983612562565b915061205f82612aee565b604082019050919050565b6000612077602e83612562565b915061208282612b3d565b604082019050919050565b600061209a602083612562565b91506120a582612b8c565b602082019050919050565b60006120bd603183612562565b91506120c882612bb5565b604082019050919050565b60006120e0602c83612562565b91506120eb82612c04565b604082019050919050565b6000612103601a83612562565b915061210e82612c53565b602082019050919050565b6000612126602f83612562565b915061213182612c7c565b604082019050919050565b6000612149602183612562565b915061215482612ccb565b604082019050919050565b600061216c603183612562565b915061217782612d1a565b604082019050919050565b61218b816126a3565b82525050565b600061219d8285611edb565b91506121a98284611edb565b91508190509392505050565b60006020820190506121ca6000830184611e4b565b92915050565b60006080820190506121e56000830187611e4b565b6121f26020830186611e4b565b6121ff6040830185612182565b81810360608301526122118184611e69565b905095945050505050565b60006020820190506122316000830184611e5a565b92915050565b600060208201905081810360008301526122518184611ea2565b905092915050565b6000602082019050818103600083015261227281611f0c565b9050919050565b6000602082019050818103600083015261229281611f2f565b9050919050565b600060208201905081810360008301526122b281611f52565b9050919050565b600060208201905081810360008301526122d281611f75565b9050919050565b600060208201905081810360008301526122f281611f98565b9050919050565b6000602082019050818103600083015261231281611fbb565b9050919050565b6000602082019050818103600083015261233281611fde565b9050919050565b6000602082019050818103600083015261235281612001565b9050919050565b6000602082019050818103600083015261237281612024565b9050919050565b6000602082019050818103600083015261239281612047565b9050919050565b600060208201905081810360008301526123b28161206a565b9050919050565b600060208201905081810360008301526123d28161208d565b9050919050565b600060208201905081810360008301526123f2816120b0565b9050919050565b60006020820190508181036000830152612412816120d3565b9050919050565b60006020820190508181036000830152612432816120f6565b9050919050565b6000602082019050818103600083015261245281612119565b9050919050565b600060208201905081810360008301526124728161213c565b9050919050565b600060208201905081810360008301526124928161215f565b9050919050565b60006020820190506124ae6000830184612182565b92915050565b60006124be6124cf565b90506124ca8282612721565b919050565b6000604051905090565b600067ffffffffffffffff8211156124f4576124f3612859565b5b6124fd82612888565b9050602081019050919050565b600067ffffffffffffffff82111561252557612524612859565b5b61252e82612888565b9050602081019050919050565b600081519050919050565b600081519050919050565b600082825260208201905092915050565b600082825260208201905092915050565b600081905092915050565b6000612589826126a3565b9150612594836126a3565b9250827fffffffffffffffffffffffffffffffffffffffffffffffffffffffffffffffff038211156125c9576125c86127cc565b5b828201905092915050565b60006125df826126a3565b91506125ea836126a3565b9250826125fa576125f96127fb565b5b828204905092915050565b6000612610826126a3565b915061261b836126a3565b92508282101561262e5761262d6127cc565b5b828203905092915050565b600061264482612683565b9050919050565b60008115159050919050565b60007fffffffff0000000000000000000000000000000000000000000000000000000082169050919050565b600073ffffffffffffffffffffffffffffffffffffffff82169050919050565b6000819050919050565b82818337600083830152505050565b60005b838110156126da5780820151818401526020810190506126bf565b838111156126e9576000848401525b50505050565b6000600282049050600182168061270757607f821691505b6020821081141561271b5761271a61282a565b5b50919050565b61272a82612888565b810181811067ffffffffffffffff8211171561274957612748612859565b5b80604052505050565b600061275d826126a3565b91507fffffffffffffffffffffffffffffffffffffffffffffffffffffffffffffffff8214156127905761278f6127cc565b5b600182019050919050565b60006127a6826126a3565b91506127b1836126a3565b9250826127c1576127c06127fb565b5b828206905092915050565b7f4e487b7100000000000000000000000000000000000000000000000000000000600052601160045260246000fd5b7f4e487b7100000000000000000000000000000000000000000000000000000000600052601260045260246000fd5b7f4e487b7100000000000000000000000000000000000000000000000000000000600052602260045260246000fd5b7f4e487b7100000000000000000000000000000000000000000000000000000000600052604160045260246000fd5b6000601f19601f8301169050919050565b7f4552433732313a207472616e7366657220746f206e6f6e20455243373231526560008201527f63656976657220696d706c656d656e7465720000000000000000000000000000602082015250565b7f4552433732313a207472616e736665722066726f6d20696e636f72726563742060008201527f6f776e6572000000000000000000000000000000000000000000000000000000602082015250565b7f4552433732313a20746f6b656e20616c7265616479206d696e74656400000000600082015250565b7f4552433732313a207472616e7366657220746f20746865207a65726f2061646460008201527f7265737300000000000000000000000000000000000000000000000000000000602082015250565b7f4552433732313a20617070726f766520746f2063616c6c657200000000000000600082015250565b7f4e6f74204f776e65720000000000000000000000000000000000000000000000600082015250565b7f4552433732313a206f70657261746f7220717565727920666f72206e6f6e657860008201527f697374656e7420746f6b656e0000000000000000000000000000000000000000602082015250565b7f4552433732313a20617070726f76652063616c6c6572206973206e6f74206f7760008201527f6e6572206e6f7220617070726f76656420666f7220616c6c0000000000000000602082015250565b7f4552433732313a2062616c616e636520717565727920666f7220746865207a6560008201527f726f206164647265737300000000000000000000000000000000000000000000602082015250565b7f4552433732313a206f776e657220717565727920666f72206e6f6e657869737460008201527f656e7420746f6b656e0000000000000000000000000000000000000000000000602082015250565b7f45524337323155524953746f726167653a2055524920736574206f66206e6f6e60008201527f6578697374656e7420746f6b656e000000000000000000000000000000000000602082015250565b7f4552433732313a206d696e7420746f20746865207a65726f2061646472657373600082015250565b7f45524337323155524953746f726167653a2055524920717565727920666f722060008201527f6e6f6e6578697374656e7420746f6b656e000000000000000000000000000000602082015250565b7f4552433732313a20617070726f76656420717565727920666f72206e6f6e657860008201527f697374656e7420746f6b656e0000000000000000000000000000000000000000602082015250565b7f50617469656e742041646472657373206e6f7420657869737421000000000000600082015250565b7f4552433732314d657461646174613a2055524920717565727920666f72206e6f60008201527f6e6578697374656e7420746f6b656e0000000000000000000000000000000000602082015250565b7f4552433732313a20617070726f76616c20746f2063757272656e74206f776e6560008201527f7200000000000000000000000000000000000000000000000000000000000000602082015250565b7f4552433732313a207472616e736665722063616c6c6572206973206e6f74206f60008201527f776e6572206e6f7220617070726f766564000000000000000000000000000000602082015250565b612d7281612639565b8114612d7d57600080fd5b50565b612d898161264b565b8114612d9457600080fd5b50565b612da081612657565b8114612dab57600080fd5b50565b612db7816126a3565b8114612dc257600080fd5b5056fea2646970667358221220b6f34c6dce9eafa432f5d5ed1bfcf55369216ad25cc35f4bc2b26c88079d8fad64736f6c63430008010033",
  "linkReferences": {},
  "deployedLinkReferences": {}
}